{
  "contractName": "Lottery",
  "abi": [
    {
      "inputs": [
        {
          "name": "_lucky",
          "type": "uint256"
        }
      ],
      "payable": false,
      "stateMutability": "nonpayable",
      "type": "constructor"
    },
    {
      "constant": false,
      "inputs": [],
      "name": "puchaseToken",
      "outputs": [
        {
          "name": "",
          "type": "uint256"
        }
      ],
      "payable": true,
      "stateMutability": "payable",
      "type": "function"
    },
    {
      "constant": true,
      "inputs": [],
      "name": "getToken",
      "outputs": [
        {
          "name": "",
          "type": "uint256"
        }
      ],
      "payable": false,
      "stateMutability": "view",
      "type": "function"
    },
    {
      "constant": false,
      "inputs": [
        {
          "name": "guess",
          "type": "uint256"
        }
      ],
      "name": "makeGuess",
      "outputs": [
        {
          "name": "",
          "type": "uint256"
        }
      ],
      "payable": false,
      "stateMutability": "nonpayable",
      "type": "function"
    },
    {
      "constant": false,
      "inputs": [],
      "name": "closeGame",
      "outputs": [],
      "payable": false,
      "stateMutability": "nonpayable",
      "type": "function"
    },
    {
      "constant": false,
      "inputs": [],
      "name": "winnerAddress",
      "outputs": [
        {
          "name": "",
          "type": "address"
        }
      ],
      "payable": false,
      "stateMutability": "nonpayable",
      "type": "function"
    }
  ],
  "bytecode": "0x608060405234801561001057600080fd5b5060405160208061075183398101806040528101908080519060200190929190505050336000806101000a81548173ffffffffffffffffffffffffffffffffffffffff021916908373ffffffffffffffffffffffffffffffffffffffff1602179055506000600360006101000a81548160ff021916908315150217905550806005819055506000600481905550506106a4806100ad6000396000f30060806040526004361061006d576000357c0100000000000000000000000000000000000000000000000000000000900463ffffffff16806304433ad31461007257806321df0da71461009057806322666da6146100bb578063786b844b146100fc578063ed7a4e0b14610113575b600080fd5b61007a61016a565b6040518082815260200191505060405180910390f35b34801561009c57600080fd5b506100a5610259565b6040518082815260200191505060405180910390f35b3480156100c757600080fd5b506100e6600480360381019080803590602001909291905050506102a0565b6040518082815260200191505060405180910390f35b34801561010857600080fd5b506101116103f9565b005b34801561011f57600080fd5b50610128610471565b604051808273ffffffffffffffffffffffffffffffffffffffff1673ffffffffffffffffffffffffffffffffffffffff16815260200191505060405180910390f35b600080600360009054906101000a900460ff1615151561018957600080fd5b670de0b6b3a764000034101515156101a057600080fd5b670de0b6b3a7640000348115156101b357fe5b04905080600160003373ffffffffffffffffffffffffffffffffffffffff1673ffffffffffffffffffffffffffffffffffffffff1681526020019081526020016000206000828254019250508190555080600460008282540192505081905550600160003373ffffffffffffffffffffffffffffffffffffffff1673ffffffffffffffffffffffffffffffffffffffff1681526020019081526020016000205491505090565b6000600160003373ffffffffffffffffffffffffffffffffffffffff1673ffffffffffffffffffffffffffffffffffffffff16815260200190815260200160002054905090565b6000600360009054906101000a900460ff161515156102be57600080fd5b60018060003373ffffffffffffffffffffffffffffffffffffffff1673ffffffffffffffffffffffffffffffffffffffff168152602001908152602001600020541015151561030c57600080fd5b60008211801561031e5750620f424182105b151561032957600080fd5b60018060003373ffffffffffffffffffffffffffffffffffffffff1673ffffffffffffffffffffffffffffffffffffffff168152602001908152602001600020600082825403925050819055506005548214156103ef5760023390806001815401808255809150509060018203906000526020600020016000909192909190916101000a81548173ffffffffffffffffffffffffffffffffffffffff021916908373ffffffffffffffffffffffffffffffffffffffff16021790555050600190506103f4565b600090505b919050565b6000809054906101000a900473ffffffffffffffffffffffffffffffffffffffff1673ffffffffffffffffffffffffffffffffffffffff163373ffffffffffffffffffffffffffffffffffffffff1614151561045457600080fd5b6001600360006101000a81548160ff021916908315150217905550565b600080600060011515600360009054906101000a900460ff16151514151561049857600080fd5b60026004548115156104a657fe5b0491508160045403905060006002805490501415156105fe57600260008154811015156104cf57fe5b9060005260206000200160009054906101000a900473ffffffffffffffffffffffffffffffffffffffff1673ffffffffffffffffffffffffffffffffffffffff166108fc670de0b6b3a764000084029081150290604051600060405180830381858888f19350505050158015610549573d6000803e3d6000fd5b506000809054906101000a900473ffffffffffffffffffffffffffffffffffffffff1673ffffffffffffffffffffffffffffffffffffffff166108fc670de0b6b3a764000083029081150290604051600060405180830381858888f193505050501580156105bb573d6000803e3d6000fd5b50600260008154811015156105cc57fe5b9060005260206000200160009054906101000a900473ffffffffffffffffffffffffffffffffffffffff169250610673565b6000809054906101000a900473ffffffffffffffffffffffffffffffffffffffff1673ffffffffffffffffffffffffffffffffffffffff166108fc670de0b6b3a7640000600454029081150290604051600060405180830381858888f19350505050158015610671573d6000803e3d6000fd5b505b5050905600a165627a7a723058200e107bd80a5b92a600b692a0fd85f000d36a2b9f49a3ba24396dee396db8e53f0029",
  "source": "pragma solidity ^0.4.0;\ncontract Lottery {\n\n    address author;\n    mapping(address => uint) tokens;\n    address[] winners;\n    bool finished ;\n    uint collected ;\n    uint lucky ;\n\n    constructor(uint _lucky) public {\n        author = msg.sender;\n        finished = false;\n        lucky = _lucky;\n        collected = 0 ;\n    }\n\n    \n    function puchaseToken() public payable returns(uint) {\n\n        require( !finished );\n        require( msg.value >= 10**18 );\n        \n        // convert to integer \n        uint amount = msg.value/(10**18);\n\n        tokens[msg.sender] += amount ;\n        collected += amount ; \n\n        return tokens[msg.sender] ;\n    }\n    \n    function getToken() public constant returns(uint) {\n        return tokens[msg.sender] ;\n    }\n    \n    function makeGuess(uint guess) public returns(uint) {\n\n        require( !finished );\n        require( tokens[msg.sender] >= 1  );\n        require( guess > 0 && guess < 1000001 );\n        tokens[msg.sender] -= 1;\n        if( guess == lucky ){\n            winners.push(msg.sender); \n            return 1;\n        }\n        return 0;\n        \n    }\n    \n    \n    function closeGame() public {\n\n        require(msg.sender == author );\n\n        finished = true ;\n    }\n    \n    \n    function winnerAddress() public returns(address) {\n        // Currently Sending 50% to author and 50% to Creator.  Can Be Modified to Divide the 50% between all winners.\n        // win% = 50 / winners.length \n\n        require(finished == true);\n        \n        uint s1  = collected / 2 ;\n        uint s2 = collected - s1 ;\n        \n        if(winners.length != 0 ){\n            winners[0].transfer(s1 * 10**18);\n            author.transfer(s2 * 10**18);\n\n            return winners[0];\n\n        }\n\n        author.transfer( collected * 10**18  );\n        \n        \n        \n    }\n    \n}",
  "sourcePath": "/home/dhruv/Desktop/Code/ethereum/petshop/contracts/Lottery.sol",
  "compiler": {
    "name": "solc",
    "version": "0.4.23+commit.124ca40d.Emscripten.clang"
  },
  "schemaVersion": "2.0.0",
  "updatedAt": "2018-04-25T13:11:03.644Z"
}